:1000000054C0000070C000006EC000006CC0000052
:100010006AC0000068C0000066C0000064C0000044
:1000200062C00000F2C600005EC000004CC60000C6
:100030005AC0000058C0000056C0000054C0000064
:1000400052C0000050C000004EC000004CC0000074
:100050004AC0000048C0000046C0000044C0000084
:1000600042C0000040C000003EC000003CC0000094
:100070003AC0000038C0000036C0000034C00000A4
:1000800032C0000030C000002EC0000005A84CCDDA
:10009000B2D44EB93836A9020C50B9918688083CC2
:1000A000A6AAAA2ABE000000803F11241FBECFEFDF
:1000B000D0E1DEBFCDBF12E0A0E0B1E0E0E0FCE1C6
:1000C00000E00BBF02C007900D92A234B107D9F730
:1000D00022E0A2E4B2E001C01D92AE39B207E1F71E
:1000E000E2D30C94FE0D8CCF1092900082E289B97D
:1000F00082E08BB98EE08093950088E18AB90895FB
:100100005D9BFECF8CB90895EF92FF920F931F93E2
:10011000CF93DF93CDB7DEB7C155D1090FB6F894B1
:10012000DEBF0FBECDBF8C0141E550E060E270E064
:10013000CE0101960E941B0BB801CE0101960E94D0
:100140002B0B8E010F5F1F4F7E0182E5E80EF11C25
:10015000F80181918F01D4DF0E151F05C9F7CF5A21
:10016000DF4F0FB6F894DEBF0FBECDBFDF91CF914A
:100170001F910F91FF90EF900895BC0140910601EF
:10018000509107014817590754F0E8E0F1E021E0E9
:1001900030E041915191461757075CF402C020E0CE
:1001A00030E0F901EE0FFF1FEC5FFE4F808191817F
:1001B00009C02F5F3F4F2031310559F740E050E033
:1001C00080E090E0841B950B641B750B0E94B309C3
:1001D000C901880F991F880F991F820F931F860FDF
:1001E000971F089587B1826C87B986B1876C86B9ED
:1001F000089586B1806C86B93699FECF84B195B1E9
:10020000BCCF0895DE9A90E0EAD5DE988BB3807F6C
:100210008BBB0895CF93C82FDC988BB39C2F9295FE
:100220009F70892B8BBB82E0EDDF8BB3CF70C82B27
:10023000CBBB82E0E7DFDC9ACF91089581E0EADF73
:1002400081E090E0CCC5089582E0E4CF08958FEF7F
:100250008ABB83E08BBBDE9A81E090E0C0D5DE985C
:1002600085E090E0BCD5DE9A81E090E0B8D5DE98DC
:10027000DE9A81E090E0B3D5DE9882E08BBB81E02E
:10028000C1DF8BB38BBB81E0BDDF8BB38E608BBBDB
:1002900081E0B8DF8BB38BBB81E0B4DF8BB38660CA
:1002A0008BBB81E0AFDF8BB38BBB81E0ABDFD89A38
:1002B00081E0A8DFDC9AC8CF089580ECABCF089529
:1002C00084E9A8CF089584EDA5CF0895CF93C82FD2
:1002D0008BB39C2F92959F70892B8BBB81E092DF13
:1002E0008BB3CF70C82BCBBB81E08CDFCF9108954F
:1002F000CF92DF92EF92FF920F931F93CF93DF93F2
:10030000CDB7DEB7C155D1090FB6F894DEBF0FBE29
:10031000CDBFFE01E45AFF4F419151919F0161E52C
:1003200070E0CE0101960E94320BBE016F5F7F4FDD
:1003300082E492E00E94220B892B09F440C0BE01A6
:100340006F5F7F4F82E492E00E942B0B77DF9E016C
:100350002F5F3F4F690100E010E00F2EF4E1EF2E18
:10036000F12CF02D24C08A3049F4C801B701FBD725
:10037000F701E81BF90B0E0F1F1F03C0A7DF0F5F6C
:100380001F4FC801B701EFD7892B89F4C801B70106
:10039000EAD76230710541F06330710539F06130A0
:1003A000710529F48ADF03C08BDF01C08CDFF60101
:1003B00081916F01882319F000351105A4F2CF5AFD
:1003C000DF4F0FB6F894DEBF0FBECDBFDF91CF91E8
:1003D0001F910F91FF90EF90DF90CF900895BC0197
:1003E000882777FD8095982F2ED62BED3FE049E4A6
:1003F00050E412D720E030E044E353E489C5089587
:10040000CF93DF9324DF70DE7894ECDEA7D42AD478
:10041000F9D2EC01FBD388E291E076DECE01DF91E8
:10042000CF9108958E3E22E0920744F08E5E924076
:100430008A3F910530F481E090E0089580E090E0FB
:10044000089582E090E00895CF93DF93D82FC92FCD
:100450009F938F934DDF8D2F9C2F56DE0F900F9023
:10046000DF91CF910895AF92BF92CF92DF92EF923A
:10047000FF920F931F93CF93DF9381E591E0E4DF29
:10048000A12CB12CC0E0D0E0CE0102D4B2DE8C01B0
:10049000CE01A5DFBC01882777FD8095982FD3D5A5
:1004A00034D56B017C01B80180E090E0CAD5A7018A
:1004B0009601B2D695D59B01772324F422273327C2
:1004C000261B370B203131052CF48DE591E0BCDF84
:1004D000AC2EBD2E5DD46B017C01CE0180DFBC0152
:1004E000882777FD8095982FAED50FD59B01AC015D
:1004F000C701B60191D674D59B01772324F4222736
:100500003327261B370B203131051CF48CE791E093
:100510009BDF22968EE190E062D4C63BD10509F0C4
:10052000B3CF8A2D9B2DDF91CF911F910F91FF901B
:10053000EF90DF90CF90BF90AF9008954F925F9271
:100540006F927F928F929F92AF92BF92CF92DF92E3
:10055000EF92FF920F931F93CF93DF9300D000D0C1
:10056000CDB7DEB70F2E412C512CF8EC6F2EF2E4F4
:100570007F2EF02D530142010F2EC12CD12CF4E31C
:10058000EF2EF2E4FF2EF02DC701B6012ED5CB01E0
:100590007FD3FED369837A838B839C8323EC35EFEF
:1005A00048E25FE3C501B40137D64B015C0123EC9F
:1005B00035EF48EA5EE369817A818B819C812CD694
:1005C000A50194013AD44B015C0113DED6DD8C0108
:1005D00023EC35EF48E25FE3C301B2011DD62B01E6
:1005E0003C01B801882777FD8095982F2CD523EC06
:1005F00035EF48EA5EE310D6A30192011ED42B0129
:100600003C0120E030E048EC51E4C501B40179D46C
:1006100088234CF020E030E048EC51E4C301B20103
:1006200070D4882344F48AE891E00EDFC701B60154
:10063000D7D4CB0113C020E030E040E050E4C70144
:10064000B601FBD36B017C0120E030E047E053E4CE
:1006500058D418160CF098CF80E090E00F900F90CF
:100660000F900F90DF91CF911F910F91FF90EF901E
:10067000DF90CF90BF90AF909F908F907F906F90C2
:100680005F904F900895CF92DF92EF92FF920F9379
:100690001F93CF93DF93EC018C8D9D8DC3DE8C0176
:1006A0008E8D9F8DBFDE6C0188A199A1BBDE7C0180
:1006B0008AA19BA1B7DE0130110561F021E0E216AD
:1006C000F10491F021E0C216D10471F0813091055E
:1006D000F9F414C08DE991E0B7DEBE0180EB9FEF25
:1006E000ECD081E090E029C085EB91E0ADDEBE0169
:1006F00084E690E0E2D081E090E01FC08FEC91E0D2
:10070000A3DEBE0180E590E0D8D081E090E015C086
:100710000230110551F022E0E216F10431F022E03E
:10072000C216D10411F0029731F487EE91E08CDE0D
:1007300082E090E002C080E090E0DF91CF911F91D5
:100740000F91FF90EF90DF90CF900895CF93DF93BC
:10075000EC013E8D2F8D78A169A14AA15BA18C8D02
:100760009D8D892B69F0832F922F272F362F452BB4
:1007700059F0232B69F0892B59F080E090E01DC0DF
:1007800088EF91E061DE0BC0892B11F0232B21F45F
:100790008CE092E059DE03C081E292E055DE9E01DA
:1007A00044E650E06CE97FEF8CE99FEFE4D0BE01B6
:1007B00089E690E082D081E090E0DF91CF910895CA
:1007C0006F927F928F929F92AF92BF92CF92DF9261
:1007D000EF92FF920F931F93CF93DF934C015B0136
:1007E000181619060CF050C0EE24EA94FE2C0FEFF8
:1007F0001FEFCFEFDFEFC12CD12C612C712CC53650
:10080000D10524F4CF3F4FEFD40771F497DE009762
:1008100049F0B5012AE530E0A901481B590BCA018E
:100820004CD032C0C62DD72D0A31110524F40F3F0C
:100830004FEF140731F4C50126DF892B29F5062D6A
:10084000172D5BE0E516F10424F48FEFE816F806A7
:1008500031F4C5017BDF892BB9F4E62CF72C950127
:100860004AE050E068E770E088E790E084D04AE032
:10087000C40ED11C2A96065F1F4F5AE0E50EF11CEC
:10088000C814D9040CF4BBCFDF91CF911F910F9105
:10089000FF90EF90DF90CF90BF90AF909F908F90A0
:1008A0007F906F900895ACDDEC01BE0182EC91E089
:1008B00087DFD9DDCE01EFD0F8CFEF92FF920F9313
:1008C0001F93CF93DF93EC018B01882799278C1B13
:1008D0009D0B23E030E0B90146D5FB01EE0FFF1F71
:1008E000CE01B90140D5CB01BF01880F991FB4D00B
:1008F0007E01DD2324F4EE24FF24EC1AFD0A1E14ED
:100900001F04A4F4C0E0D0E088E290E068D2C801FF
:10091000C2D0F8012685378533231CF43195219503
:100920003109C20FD31FCE15DF0574F360E070E00C
:1009300080E090E091D0DF91CF911F910F91FF90D7
:10094000EF900895CF93DF93EC018881982F9170F9
:1009500081FD02C0992351F086E392E075DDBE016E
:1009600089E690E0AADF81E090E002C080E090E0BC
:10097000DF91CF910895AF92BF92CF92DF92EF9225
:10098000FF920F931F93CF93DF937C015B01EA01EA
:10099000890162D06E01DD2324F4CC24DD24CC1A3D
:1009A000DD0A1C141D04F4F4C0E0D0E0C80173D0CB
:1009B0001E141F0454F41A141B043CF4C801C2DFB3
:1009C000892B19F0B501C70147D0F8014485558539
:1009D00055231CF4519541955109C40FD51FCC15D1
:1009E000DD0524F360E070E080E090E035D0DF9139
:1009F000CF911F910F91FF90EF90DF90CF90BF901C
:100A0000AF90089564E370E081E090E0D3C408956E
:100A1000EBE9F0E0908195FFFDCF80939C00089575
:100A20000F931F93CF93DF93082F162FD42FC22F2E
:100A30008BE8EEDF112329F081E0011103C080E093
:100A400001C080E0E5DF8D2FE3DF8C2FE1DFDF9158
:100A5000CF911F910F9108950F931F93CF93DF9321
:100A6000182F092FC62FD72F81E9D2DF802FD0DF93
:100A7000812FCEDF8D2FCCDF8C2FCADFDF91CF917E
:100A80001F910F910895EBE9F0E080818823ECF746
:100A900080919C000895EF92FF920F931F93CF9344
:100AA000DF937C0180919B00882344F4ACE9B0E0A3
:100AB000EBE9F0E08C9180818823E4F38EE8A8DFF5
:100AC00086E0A6DFE70187010C5C1F4FDCDF89931E
:100AD000C017D107D9F7F701848590E0982F8827B0
:100AE0002585820F911D95878487868590E0982FB4
:100AF00088272785820F911D97878687818990E0B7
:100B0000982F88272289820F911D928B818B838950
:100B100090E0982F88272489820F911D948B838BD6
:100B2000868990E0982F88272789820F911D978BBF
:100B3000868B808D90E0982F8827218D820F911DC4
:100B4000918F808F828D90E0982F8827238D820F40
:100B5000911D938F828F848D90E0982F8827258D0B
:100B6000820F911D958F848F868D90E0982F882716
:100B7000278D820F911D978F868F80A190E0982FEF
:100B8000882721A1820F911D91A380A382A190E0CB
:100B9000982F882723A1820F911D93A382A382A55A
:100BA00090E021A530E0322F2227280F391F36A3ED
:100BB00025A320A930E0322F2227820F931F95A76B
:100BC00084A782A990E0982F882723A9820F911DDE
:100BD00097A786A784A990E0982F882725A9820F38
:100BE000911D91AB80AB86A990E0982F882727A90B
:100BF000820F911D93AB82AB83E290E0F0D0DF9146
:100C0000CF911F910F91FF90EF9008950F931F9335
:100C1000CF93DF93EC0109E910E080E1F8018083D4
:100C200088E180939A0086E080939D0080E8F0DE62
:100C300081E8EEDE88E0ECDE84E690E0D0D081E270
:100C4000F801808384E8E4DE2FEF47E061E081E093
:100C5000E7DECE0120DFCE011EDFDF91CF911F91B5
:100C60000F91089583E280938B008AE180938A003C
:100C700088EF97EA90938700809386008091260101
:100C8000909127019093850080938400149A089591
:100C9000BC0180E090E0D5D120E030E044EA51E4AE
:100CA000BBD220E030E04FE254E4C7D09ED1709335
:100CB00027016093260170938500609384008EE184
:100CC00090E08DC008951F920F920FB60F921124DD
:100CD0008F939F938091970281110DC086B597B530
:100CE00090939602809395028EB58F7B8EBD81E0A6
:100CF000809397020DC080919702813049F486B5A8
:100D000097B5909394028093930282E08093970228
:100D10009F918F910F900FBE0F901F90189560912B
:100D20009302709194028091950290919602681BB3
:100D3000790B7695679580E090E083D120E034E2EE
:100D400044E756E4E5D020E030E04AEA53E464D2D8
:100D500020E030E048EC52E45FC208951FBCEAE7AF
:100D6000F0E08081108286B7806286BF87B780629C
:100D700087BF85EC8EBD089587B78B7D87BF0895AB
:100D80008C9A949A81E090E02AD094988C98089557
:100D900010929702F1DFF4DFE1DF80919702823059
:100DA000E1F7BDCF08951092990210929802811137
:100DB00006C08BE085BD87B7806887BF07C08130DC
:100DC00029F489E085BD87B7806887BF7894089546
:100DD00087B78F7787BF85B58F7785BD0895CF9308
:100DE000DF93EC018AEF83BD109299021092980272
:100DF00080E0D9DF20919802309199022C173D07AD
:100E0000C8F3E6DFDF91CF9108951F920F920FB6DE
:100E10000F9211248F939F93809198029091990241
:100E2000019690939902809398029F918F910F90D1
:100E30000FBE0F901F9018955058BB27AA270ED0B1
:100E4000A0C169D130F06ED120F031F49F3F11F490
:100E50001EF45EC10EF4E095E7FB54C1E92FB3D157
:100E600080F3BA17620773078407950718F071F4C7
:100E70009EF5CBC10EF4E0950B2EBA2FA02D0B01E1
:100E8000B90190010C01CA01A0011124FF27591BCF
:100E900099F0593F50F4503E68F11A16F040A22FD5
:100EA000232F342F4427585FF3CF46953795279546
:100EB000A795F0405395C9F77EF41F16BA0B620B45
:100EC000730B840BBAF09150A1F0FF0FBB1F661F8C
:100ED000771F881FC2F70EC0BA0F621F731F841FCF
:100EE00048F4879577956795B795F7959E3F08F0F5
:100EF000B3CF9395880F08F09927EE0F97958795B4
:100F00000895DCD008F481E0089514D1E3954AC136
:100F10000CD037C107D140F0FED030F021F45F3F54
:100F200019F0F0C0511172C1F3C04DD198F399235B
:100F3000C9F35523B1F3951B550BBB27AA2762179D
:100F40007307840738F09F5F5F4F220F331F441FE2
:100F5000AA1FA9F333D00E2E3AF0E0E830D091501A
:100F60005040E695001CCAF729D0FE2F27D0660F07
:100F7000771F881FBB1F261737074807AB07B0E846
:100F800009F0BB0B802DBF01FF2793585F4F2AF05C
:100F90009E3F510568F0B6C039C15F3FECF3983E03
:100FA000DCF3869577956795B795F7959F5FC9F7B9
:100FB000880F911D9695879597F90895E1E0660F42
:100FC000771F881FBB1F621773078407BA0720F0BB
:100FD000621B730B840BBA0BEE1F88F7E095089524
:100FE00004D06894B11112C10895F5D088F09F57CC
:100FF00090F0B92F9927B751A0F0D1F0660F771F65
:10100000881F991F1AF0BA95C9F712C0B13081F044
:10101000FCD0B1E00895F9C0672F782F8827B85F1A
:1010200039F0B93FCCF3869577956795B395D9F7A5
:101030003EF490958095709561957F4F8F4F9F4FAF
:101040000895E89409C097FB3EF4909580957095BB
:1010500061957F4F8F4F9F4F9923A9F0F92F96E904
:10106000BB279395F695879577956795B795F11179
:10107000F8CFFAF4BB0F11F460FF1BC06F5F7F4F16
:101080008F4F9F4F16C0882311F096E911C0772328
:1010900021F09EE8872F762F05C0662371F096E831
:1010A000862F70E060E02AF09A95660F771F881F00
:1010B000DAF7880F9695879597F90895990F0008A4
:1010C000550FAA0BE0E8FEEF16161706E807F9071A
:1010D000C0F012161306E407F50798F0621B730BB5
:1010E000840B950B39F40A2661F0232B242B252B36
:1010F00021F408950A2609F4A140A6958FEF811DD9
:10110000811D089597F99F6780E870E060E0089579
:101110009FEF80EC089500240A941616170618060F
:101120000906089500240A941216130614060506EB
:101130000895EECF50D0E8F3E894E0E0BB279F5746
:10114000F0F02AED3FE049EC06C0EE0FBB0F661F42
:10115000771F881F28F0B23A62077307840728F0C8
:10116000B25A620B730B840BE3959A9572F7803831
:1011700030F49A95BB0F661F771F881FD2F79048EF
:10118000B0C0092E0394000C11F4882352F0BB0F59
:1011900040F4BF2B11F460FF04C06F5F7F4F8F4F8F
:1011A0009F4F0895EF93E0FF06C0A2EA2AED3FE0CB
:1011B00049EC5FEB53DEE5DF0F90039401FC9058A0
:1011C000ECE8F0E09AC057FD9058440F551F59F0D5
:1011D0005F3F71F04795880F97FB991F61F09F3F24
:1011E00079F087950895121613061406551FF2CF4D
:1011F0004695F1DF08C0161617061806991FF1CF9D
:1012000086957105610508940895E894BB276627C3
:101210007727CB0197F908950BD0B3CF7CDF28F067
:1012200081DF18F0952309F06DCF72CF1124EECF36
:10123000CADFA0F3959FD1F3950F50E0551F629F31
:10124000F001729FBB27F00DB11D639FAA27F00D1F
:10125000B11DAA1F649F6627B00DA11D661F829F46
:101260002227B00DA11D621F739FB00DA11D621F2B
:10127000839FA00D611D221F749F3327A00D611D48
:10128000231F849F600D211D822F762F6A2F11242A
:101290009F5750408AF0E1F088234AF0EE0FFF1F7D
:1012A000BB1F661F771F881F91505040A9F79E3FB4
:1012B000510570F027CFAACF5F3FECF3983EDCF3E7
:1012C000869577956795B795F795E7959F5FC1F7F1
:1012D000FE2B880F911D9695879597F908959F3F4E
:1012E00031F0915020F4879577956795B795880FE1
:1012F000911D9695879597F908959F938F937F9366
:101300006F93FF93EF939B01AC0186DFEF91FF9109
:1013100005D02F913F914F915F917ECFDF93CF9377
:101320001F930F93FF92EF92DF927B018C016894E1
:1013300005C0DA2EEF017CDFFE01E894A59125912E
:10134000359145915591AEF3EF0188DDFE0197018E
:10135000A801DA9479F7DF90EF90FF900F911F9139
:10136000CF91DF91089597FB072E16F4009406D0D5
:1013700077FD08D00BD007FC05D03EF49095819501
:101380009F4F0895709561957F4F0895AA1BBB1BD1
:1013900051E107C0AA1FBB1FA617B70710F0A61B75
:1013A000B70B881F991F5A95A9F780959095BC0196
:1013B000CD0108950F931F93CF93DF93869F8001F4
:1013C000879F100D969F100D1124C8010DD0EC01C0
:1013D000009721F0A80160E070E02DD1CE01DF91EF
:1013E000CF911F910F910895CF93DF938230910594
:1013F00010F482E090E0E0919C02F0919D0220E0E8
:1014000030E0A0E0B0E0309739F1408151814817D9
:101410005907B8F04817590771F4828193811097E2
:1014200029F013969C938E9312972CC090939D0253
:1014300080939C0227C02115310531F042175307D4
:1014400018F0A901DB0101C0EF019A01BD01DF0124
:101450000280F381E02DD7CF21153105F9F0281B4B
:10146000390B2430310580F48A819B816115710527
:1014700021F0FB019383828304C090939D028093AB
:101480009C02FE01329644C0FE01E20FF31F8193DD
:10149000919322503109398328833AC020919A02CE
:1014A00030919B02232B41F42091020130910301E2
:1014B00030939B0220939A02209100013091010108
:1014C0002115310541F42DB73EB7409104015091EB
:1014D0000501241B350BE0919A02F0919B02E21763
:1014E000F307A0F42E1B3F0B2817390778F0AC0147
:1014F0004E5F5F4F2417350748F04E0F5F1F509324
:101500009B0240939A028193919302C0E0E0F0E045
:10151000CF01DF91CF910895CF93DF93009709F426
:1015200087C0FC01329713821282C0919C02D09135
:101530009D02209781F420813181280F391F8091ED
:101540009A0290919B028217930779F5F0939B0280
:10155000E0939A026DC0DE0120E030E0AE17BF07D5
:1015600050F412964D915C9113979D0141155105D0
:1015700009F1DA01F3CFB383A28340815181840F53
:10158000951F8A179B0771F48D919C911197840F79
:10159000951F02969183808312968D919C9113974B
:1015A000938382832115310529F4F0939D02E09302
:1015B0009C023EC0D9011396FC93EE9312974D9175
:1015C0005D91A40FB51FEA17FB0779F48081918123
:1015D000840F951F0296D90111969C938E93828158
:1015E000938113969C938E931297E0E0F0E08A81AA
:1015F0009B81009719F0FE01EC01F9CFCE01029614
:1016000028813981820F931F20919A0230919B0289
:101610002817390769F4309729F410929D02109227
:101620009C0202C013821282D0939B02C0939A0242
:10163000DF91CF910895DC0101C06D93415050407E
:10164000E0F70895FB01DC018D91019080190110F4
:10165000D9F3990B0895FB01DC0101900D92002054
:10166000E1F708950F931F93CF93DF93CDB7DEB7C4
:101670002E970FB6F894DEBF0FBECDBF8C01CA0106
:1016800046E04C831A83098377FF02C060E070E86C
:10169000615071097E836D83A901BC01CE01019661
:1016A00019D04D815E8157FD0AC02F8138854217C0
:1016B00053070CF49A01F801E20FF31F10822E96E3
:1016C0000FB6F894DEBF0FBECDBFDF91CF911F9153
:1016D0000F9108952F923F924F925F926F927F9257
:1016E0008F929F92AF92BF92CF92DF92EF92FF9232
:1016F0000F931F93CF93DF93CDB7DEB72C970FB621
:10170000F894DEBF0FBECDBF7C016B018A01FC01E6
:1017100017821682838181FFB0C1CE0101964C01F0
:10172000F7019381F60193FD859193FF81916F01FC
:10173000882309F49EC1853239F493FD859193FF86
:1017400081916F01853221F4B70190E0C7D1E8CFD4
:10175000512C312C20E02032A0F48B3269F030F48F
:10176000803259F0833269F420612CC08D3239F017
:10177000803339F4216026C02260246023C02860B1
:1017800021C027FD27C030ED380F3A3078F426FF0E
:1017900006C0FAE05F9E300D1124532E13C08AE07C
:1017A000389E300D1124332E20620CC08E3221F46D
:1017B00026FD5FC1206406C08C3611F4206802C08B
:1017C000883641F4F60193FD859193FF81916F0175
:1017D0008111C1CF982F9F7D9554933028F40C5FD1
:1017E0001F4FFFE3F9830DC0833631F0833771F06B
:1017F000833509F057C021C0F801808189830E5FCD
:101800001F4F44244394512C540114C03801F2E07A
:101810006F0E711CF801A080B18026FF03C0652DFA
:1018200070E002C06FEF7FEFC5012C874CD12C0117
:1018300083012C852F77222E16C03801F2E06F0E1F
:10184000711CF801A080B18026FF03C0652D70E0F7
:1018500002C06FEF7FEFC5012C872AD12C012C85A8
:101860002068222E830123FC19C0832D90E04816A6
:101870005906A0F4B70180E290E030D13A94F5CF58
:10188000F50127FC859127FE81915F01B70190E06A
:1018900025D131103A94F1E04F1A51084114510406
:1018A00079F7DEC0843611F0893631F5F80127FF6B
:1018B00007C060817181828193810C5F1F4F08C0D6
:1018C00060817181882777FD8095982F0E5F1F4F6B
:1018D0002F76B22E97FF09C09095809570956195EF
:1018E0007F4F8F4F9F4F2068B22E2AE030E0A40137
:1018F00027D1A82EA81843C0853729F42F7EB22EF1
:101900002AE030E025C0F22FF97FBF2E8F36C1F0DC
:1019100018F4883579F0ADC0803719F0883721F098
:10192000A8C02F2F2061B22EB4FE0DC08B2D846075
:10193000B82E09C024FF0AC09F2F9660B92E06C09A
:1019400028E030E005C020E130E002C020E132E0D4
:10195000F801B7FE07C060817181828193810C5FBD
:101960001F4F06C06081718180E090E00E5F1F4FC5
:10197000A401E6D0A82EA818FB2DFF77BF2EB6FE37
:101980000BC02B2D2E7FA51450F4B4FE0AC0B2FC60
:1019900008C02B2D2E7E05C07A2C2B2D03C07A2C4F
:1019A00001C0752C24FF0DC0FE01EA0DF11D8081E0
:1019B000803311F4297E09C022FF06C0739473940A
:1019C00004C0822F867809F0739423FD12C020FF93
:1019D00006C05A2C731418F4530C5718732C731434
:1019E00060F4B70180E290E02C8778D073942C8566
:1019F000F6CF731410F4371801C0312C24FF11C036
:101A0000B70180E390E02C8769D02C8522FF16C0B7
:101A100021FF03C088E590E002C088E790E0B701AD
:101A20000CC0822F867851F021FD02C080E201C0F7
:101A30008BE227FD8DE2B70190E050D0A51430F481
:101A4000B70180E390E04AD05A94F8CFAA94F40109
:101A5000EA0DF11D8081B70190E040D0A110F6CFD2
:101A6000332009F45DCEB70180E290E037D03A949C
:101A7000F7CFF7018681978102C08FEF9FEF2C96F9
:101A80000FB6F894DEBF0FBECDBFDF91CF911F918F
:101A90000F91FF90EF90DF90CF90BF90AF909F900D
:101AA0008F907F906F905F904F903F902F90089510
:101AB000FC010590615070400110D8F78095909519
:101AC0008E0F9F1F0895FC0161507040019001101E
:101AD000D8F7809590958E0F9F1F08950F931F93B1
:101AE000CF93DF93182F092FEB018B8181FD03C06A
:101AF0008FEF9FEF20C082FF10C04E815F812C814D
:101B00003D81421753077CF4E881F9819F012F5FE3
:101B10003F4F39832883108306C0E885F985812FDC
:101B20000995892B29F72E813F812F5F3F4F3F83F6
:101B30002E83812F902FDF91CF911F910F910895C8
:101B4000FA01AA27283051F1203181F1E8946F93EE
:101B50006E7F6E5F7F4F8F4F9F4FAF4FB1E03ED094
:101B6000B4E03CD0670F781F891F9A1FA11D680F32
:101B7000791F8A1F911DA11D6A0F711D811D911D65
:101B8000A11D20D009F468943F912AE0269F1124DA
:101B90003019305D3193DEF6CF010895462F47703E
:101BA000405D4193B3E00FD0C9F7F6CF462F4F7099
:101BB000405D4A3318F0495D31FD4052419302D0F7
:101BC000A9F7EACFB4E0A69597958795779567959D
:101BD000BA95C9F700976105710508959B01AC019D
:101BE0000A2E06945795479537952795BA95C9F7C4
:101BF000620F731F841F951FA01D0895F894FFCFD7
:101C000000009E022000FF03DA023A02C2018601B0
:101C100054012C010401F000C800B400AA00A00087
:101C20009B00960091002003496E697469616C699C
:101C30007A65642E005455524E007475726E004DD4
:101C40004F5645006D6F76650057494E0077696EB7
:101C5000005363616E6E696E672E2E2E004952200E
:101C6000496D6D696E656E7420436F6C6C69736944
:101C70006F6E2064657465637465640050494E47F7
:101C800020496D6D696E656E7420436F6C6C69736D
:101C9000696F6E206465746563746564004C656685
:101CA000742020426F756E6461727920646574657A
:101CB0006374656400466F727761726420626F7549
:101CC0006E64617279206465746563746564005242
:101CD0006967687420626F756E64617279206465EB
:101CE0007465637465640046696E69736820446551
:101CF0007465637465642E004C65667420436C697A
:101D000066662064657465637465640046726F6E10
:101D10007420436C69666620446574656374656409
:101D200000526967687420436C6966662044657474
:101D3000656374656400436F6C6C6973696F6E21D1
:021D40000000A1
:00000001FF
