:1000000045C0000061C000005FC000005DC000008E
:100010005BC0000059C0000057C0000055C0000080
:1000200053C00000CCC700004FC0000026C700002E
:100030004BC0000049C0000047C0000045C00000A0
:1000400043C0000041C000003FC000003DC00000B0
:100050003BC0000039C0000037C0000035C00000C0
:1000600033C0000031C000002FC000002DC00000D0
:100070002BC0000029C0000027C0000025C00000E0
:1000800023C0000021C000001FC0000011241FBEBB
:10009000CFEFD0E1DEBFCDBF12E0A0E0B1E0E4EBF6
:1000A000FCE100E00BBF02C007900D92AE3AB10731
:1000B000D9F723E0AEEAB2E001C01D92A231B20747
:1000C000E1F784D40C94580E9BCF1092900082E2FA
:1000D00089B982E08BB98EE08093950088E18AB976
:1000E00008955D9BFECF8CB90895EF92FF920F9318
:1000F0001F93CF93DF93CDB7DEB7C155D1090FB6AC
:10010000F894DEBF0FBECDBF8C0141E550E060E248
:1001100070E0CE0101960E94750BB801CE010196E8
:100120000E94850B8E010F5F1F4F7E0182E5E80E56
:10013000F11CF80181918F01D4DF0E151F05C9F75D
:10014000CF5ADF4F0FB6F894DEBF0FBECDBFDF91A1
:10015000CF911F910F91FF90EF900895BC014091B6
:100160000601509107014817590754F0E8E0F1E003
:1001700021E030E041915191461757075CF402C0ED
:1001800020E030E0F901EE0FFF1FEC5FFE4F8081B1
:10019000918109C02F5F3F4F2031310559F740E071
:1001A00050E080E090E0841B950B641B750B0E946F
:1001B0000D0AC901880F991F880F991F820F931F7D
:1001C000860F971F089587B1826C87B986B1876CB7
:1001D00086B9089586B1806C86B93699FECF84B110
:1001E00095B1BCCF0895DE9A90E0D3D6DE988BB35C
:1001F000807F8BBB0895CF93C82FDC988BB39C2F47
:1002000092959F70892B8BBB82E0EDDF8BB3CF7013
:10021000C82BCBBB82E0E7DFDC9ACF91089581E069
:10022000EADF81E090E0B5C6089582E0E4CF08956A
:100230008FEF8ABB83E08BBBDE9A81E090E0A9D68A
:10024000DE9885E090E0A5D6DE9A81E090E0A1D628
:10025000DE98DE9A81E090E09CD6DE9882E08BBB4F
:1002600081E0C1DF8BB38BBB81E0BDDF8BB38E60E0
:100270008BBB81E0B8DF8BB38BBB81E0B4DF8BB38A
:1002800086608BBB81E0AFDF8BB38BBB81E0ABDFE4
:10029000D89A81E0A8DFDC9AC8CF089580ECABCF74
:1002A000089584E9A8CF089584EDA5CF0895CF934C
:1002B000C82F8BB39C2F92959F70892B8BBB81E0AD
:1002C00092DF8BB3CF70C82BCBBB81E08CDFCF919B
:1002D0000895CF92DF92EF92FF920F931F93CF93E7
:1002E000DF93CDB7DEB7C155D1090FB6F894DEBFA5
:1002F0000FBECDBFFE01E45AFF4F419151919F01C6
:1003000061E570E0CE0101960E948C0BBE016F5F2B
:100310007F4F8EEA92E00E947C0B892B09F443C048
:10032000BE016F5F7F4F8EEA92E00E94850B77DF00
:100330009E012F5F3F4F690100E010E00F2EF4E1B6
:10034000EF2EF12CF02D27C08A3051F4C801B701EF
:100350000E940D0AF701E81BF90B0E0F1F1F03C0C7
:10036000A6DF0F5F1F4FC801B7010E940D0A892B3E
:1003700091F4C801B7010E940D0A6230710541F085
:100380006330710539F06130710529F487DF03C0EE
:1003900088DF01C089DFF60181916F01882319F0A0
:1003A000003511058CF2CF5ADF4F0FB6F894DEBF3F
:1003B0000FBECDBFDF91CF911F910F91FF90EF90B6
:1003C000DF90CF900895CF93DF9332DF7EDE789475
:1003D000FADE9ED521D5B7D3EC01F2D485E991E0C0
:1003E00084DECE01DF91CF9108959C01CB01880F6F
:1003F000991F2817390784F043E2469FC001479FA1
:10040000900D11246AE070E00E940D0A261737074C
:1004100034F481E090E0089580E090E0089582E077
:1004200090E008950F931F93CF93DF93CDB7DEB77E
:10043000C256D1090FB6F894DEBF0FBECDBF8C01F6
:1004400081E3E8E2F1E0DE01119601900D928A95D8
:10045000E1F781E3E9E5F1E0DE01D29601900D924A
:100460008A95E1F79E012E5C3F4FAE014F5F5F4FD3
:1004700061E370E083E090E0A7D383E090E0D5D320
:10048000B80188EE93E0ACD2CE59DF4F0FB6F894A6
:10049000DEBF0FBECDBFDF91CF911F910F910895A9
:1004A000CF93DF93EC018C8D9D8D90930603809309
:1004B00005038E8D9F8D909304038093030388A181
:1004C00099A190930203809301038AA19BA1909329
:1004D00000038093FF021AC0CE01B7D38C8D9D8D8F
:1004E00090930603809305038E8D9F8D9093040354
:1004F0008093030388A199A1909302038093010341
:100500008AA19BA1909300038093FF028091050331
:1005100090910603892B01F38091030390910403CA
:10052000892BD1F28091010390910203892BA1F2D2
:100530008091FF0290910003892B71F2DF91CF919E
:100540000895CF93DF93D82FC92F9F938F93C1DE48
:100550008D2F9C2FCADD0F900F90DF91CF910895C2
:100560004F925F926F927F928F929F92AF92BF92C3
:10057000CF92DF92EF92FF920F931F93CF93DF936F
:1005800000D000D0CDB7DEB70F2E412C512CF8ECA7
:100590006F2EF2E47F2EF02D530142010F2EC12C5D
:1005A000D12CFCE0EF2EF2E4FF2EF02DC701B601B6
:1005B000F3D5CB0147D4C6D469837A838B839C83DC
:1005C00023EC35EF48E25FE3C501B401C3D64B012C
:1005D0005C0123EC35EF48EA5EE369817A818B8127
:1005E0009C81B8D6A501940102D54B015C01F2DDD6
:1005F000B5DD8C0123EC35EF48E25FE3C301B201C6
:10060000A9D62B013C01B801882777FD8095982F4A
:10061000F1D523EC35EF48EA5EE39CD6A3019201C5
:10062000E6D42B013C0120E030E048EC51E4C50168
:10063000B40141D588234CF020E030E048EC51E48F
:10064000C301B20138D5882344F487EF91E079DF04
:10065000C701B6019CD5CB0113C020E030E040E0DB
:1006600050E4C701B601C3D46B017C0120E030E047
:1006700041E153E420D518160CF098CF80E090E0CB
:100680000F900F900F900F90DF91CF911F910F91CE
:10069000FF90EF90DF90CF90BF90AF909F908F90A2
:1006A0007F906F905F904F900895CF92DF92EF927E
:1006B000FF920F931F93CF93DF93EC01609105039B
:1006C000709106038C8D9D8D90DE8C0160910303EB
:1006D000709104038E8D9F8D88DE6C016091010303
:1006E0007091020388A199A180DE7C016091FF02D4
:1006F000709100038AA19BA178DE0130110581F180
:1007000021E0E216F10409F43DC021E0C216D10453
:1007100009F441C08130910559F446C08AE092E065
:1007200010DFBE0184E690E05BD181E090E04DC037
:100730000230110551F022E0E216F10431F022E01E
:10074000C216D10411F0029741F484E292E0F9DE7E
:10075000CE0168DE82E090E038C080E090E035C0F5
:100760009E0142E350E06CE97FEF8CE99FEFA1D15D
:1007700085E392E0E6DEBE018FEB9FEF31D181E0B1
:1007800090E023C09E0142E350E06CE97FEF8CE9EA
:100790009FEF8FD1C3CF9E0142E350E06CE97FEF22
:1007A0008CE99FEF86D1BACF9E0142E350E06CE91D
:1007B0007FEF8CE99FEF7DD18CE492E0C2DEBE0139
:1007C00081E490E00DD181E090E0DF91CF911F9125
:1007D0000F91FF90EF90DF90CF900895EF92FF92EE
:1007E0000F931F93CF93DF93EC017E8D6F8D58A1F4
:1007F00049A12AA13BA18C8D9D8D892B21F1E72E4A
:10080000F62E052F142F232B81F1012B09F441C063
:10081000EF28B1F180E090E045C0012B51F484E66F
:1008200092E08FDEBE018AE590E0DAD081E090E0D0
:1008300039C089E792E085DEBE0181E490E0D0D046
:1008400081E090E02FC09E0142E350E06CE97FEF31
:100850008CE99FEF2ED18EE892E073DEBE018FEB24
:100860009FEFBED081E090E01DC09E0142E350E0CA
:100870006CE97FEF8CE99FEF1CD1EF2871F6CFCFA9
:100880009E0142E350E06CE97FEF8CE99FEF11D1CC
:10089000C6CF9E0142E350E06CE97FEF8CE99FEF09
:1008A00008D1BDCFDF91CF911F910F91FF90EF90B5
:1008B00008956F927F928F929F92AF92BF92CF9244
:1008C000DF92EF92FF920F931F93CF93DF934C0130
:1008D0005B01181619060CF06AC0EE24EA94FE2C8F
:1008E0000FEF1FEFCFEFDFEFC12CD12C612C712C5C
:1008F000C536D10524F4CF3F2FEFD20731F530DED6
:10090000009709F18A3591051CF4E1E0F0E002C09E
:10091000EFEFFFEF4AE550E0481B590B9A0122F434
:1009200022273327241B350B8CE390E0821B930B8B
:10093000B5019C01E29FC001E39F900DF29F900DD5
:1009400011244ED034C0C62DD72D0B30110524F400
:100950000F3F2FEF120731F4C501A7DE892B39F5C0
:10096000062D172D35E1E316F10424F48FEFE81678
:10097000F80631F4C50132DF892BC9F4E62CF72CD7
:1009800095014AE050E068E770E088E790E091D098
:10099000892B69F42AE0C20ED11C2A96065F1F4FEC
:1009A0003AE0E30EF11CC814D9040CF4A1CFDF9196
:1009B000CF911F910F91FF90EF90DF90CF90BF905C
:1009C000AF909F908F907F906F900895FCDCEC012A
:1009D00067DDBE0182EC91E06CDFCE0136D1F9CF4C
:1009E000EF92FF920F931F93CF93DF93EC018B0154
:1009F000181619061CF421E030E002C02FEF3FEF7B
:100A00004CE94203B001439F700D112484E6482F46
:100A1000429FC001439F900D1124BFD07E01DD2372
:100A200024F4EE24FF24EC1AFD0A1E141F04A4F47F
:100A3000C0E0D0E088E290E0ACD2C80106D1F80175
:100A40002685378533231CF4319521953109C20F52
:100A5000D31FCE15DF0574F360E070E080E090E016
:100A60009CD0DF91CF911F910F91FF90EF9008954F
:100A7000CF93DF93EC018881982F917081FD02C0A4
:100A8000992391F082EA92E05CDD9E0142E350E01E
:100A90006CE97FEF8CE99FEF0CD0BE018CE390E016
:100AA0009FDF81E090E002C080E090E0DF91CF9195
:100AB0000895AF92BF92CF92DF92EF92FF920F9381
:100AC0001F93CF93DF937C015B01EA0189010897B3
:100AD00064D06E01DD2324F4CC24DD24CC1ADD0A9D
:100AE0001C141D04DCF4C0E0D0E0C801AED01E141C
:100AF0001F043CF41A141B0424F4C801B9DF892B29
:100B0000A9F4F8014485558555231CF45195419568
:100B10005109C40FD51FCC15DD053CF360E070E032
:100B200080E090E03AD080E090E002C081E090E088
:100B3000DF91CF911F910F91FF90EF90DF90CF90B9
:100B4000BF90AF90089564E370E081E090E08CC4C2
:100B50000895EBE9F0E0908195FFFDCF80939C0034
:100B600008950F931F93CF93DF93082F162FD42F41
:100B7000C22F8BE8EEDF112329F081E0011103C0C1
:100B800080E001C080E0E5DF8D2FE3DF8C2FE1DF27
:100B9000DF91CF911F910F9108950F931F93CF93E2
:100BA000DF93182F092FC62FD72F81E9D2DF802F8F
:100BB000D0DF812FCEDF8D2FCCDF8C2FCADFDF91EE
:100BC000CF911F910F910895AF92BF92CF92DF9274
:100BD000EF92FF920F931F93CF93DF93C82F7B0168
:100BE0006A01A22EB32E8CE8B4DF8C2FB2DF8E2DDB
:100BF000B0DF1E141F0474F4E6010A2D1B2DEC0C4B
:100C0000FD1C8991A6DFF80181918F01A2DFCE152D
:100C1000DF05B9F7DF91CF911F910F91FF90EF9012
:100C2000DF90CF90BF90AF900895CF93C82F8DE8FD
:100C300090DF8C2F8EDFCF910895EBE9F0E080817B
:100C40008823ECF780919C000895EF92FF920F9318
:100C50001F93CF93DF937C0180919B00882344F402
:100C6000ACE9B0E0EBE9F0E08C9180818823E4F31B
:100C70008EE86FDF86E06DDFE70187010C5C1F4FB8
:100C8000DCDF8993C017D107D9F7F701848590E09D
:100C9000982F88272585820F911D958784878685C3
:100CA00090E0982F88272785820F911D9787868748
:100CB000818990E0982F88272289820F911D928B3D
:100CC000818B838990E0982F88272489820F911D3A
:100CD000948B838B868990E0982F88272789820FB1
:100CE000911D978B868B808D90E0982F8827218D82
:100CF000820F911D918F808F828D90E0982F882791
:100D0000238D820F911D938F828F848D90E0982F79
:100D10008827258D820F911D958F848F868D90E079
:100D2000982F8827278D820F911D978F868F80A1FE
:100D300090E0982F882721A1820F911D91A380A375
:100D400082A190E0982F882723A1820F911D93A361
:100D500082A382A590E021A530E0322F2227280F20
:100D6000391F36A325A320A930E0322F2227820F76
:100D7000931F95A784A782A990E0982F882723A97D
:100D8000820F911D97A786A784A990E0982F8827A6
:100D900025A9820F911D91AB80AB86A990E0982F79
:100DA000882727A9820F911D93AB82AB83E290E045
:100DB000F0D0DF91CF911F910F91FF90EF900895A8
:100DC0000F931F93CF93DF93EC0109E910E080E1CB
:100DD000F801808388E180939A0086E080939D00EB
:100DE00080E8B7DE81E8B5DE88E0B3DE84E690E037
:100DF000D0D081E2F801808384E8ABDE2FEF47E0BA
:100E000061E081E0AEDECE0120DFCE011EDFDF91AA
:100E1000CF911F910F91089583E280938B008AE117
:100E200080938A0088EF97EA9093870080938600EA
:100E300080912601909127019093850080938400F2
:100E4000149A0895BC0180E090E0D2D120E030E017
:100E500044EA51E47FD220E030E04FE254E4C7D0CE
:100E60009BD1709327016093260170938500609356
:100E700084008EE190E08DC008951F920F920FB60E
:100E80000F9211248F939F9380910B0381110DC0BA
:100E900086B597B590930A03809309038EB58F7B2F
:100EA0008EBD81E080930B030DC080910B038130D8
:100EB00049F486B597B5909308038093070382E0C1
:100EC00080930B039F918F910F900FBE0F901F90F7
:100ED0001895609107037091080380910903909120
:100EE0000A03681B790B7695679580E090E080D1C6
:100EF00020E034E244E756E4E2D020E030E04AEA81
:100F000053E428D220E030E048EC52E423C20895B4
:100F10001FBCEAE7F0E08081108286B7806286BF5E
:100F200087B7806287BF85EC8EBD089587B78B7DBC
:100F300087BF08958C9A949A81E090E02AD0949883
:100F40008C98089510920B03F1DFF4DFE1DF8091BC
:100F50000B038230E1F7BDCF089510920D0310927C
:100F60000C03811106C08BE085BD87B7806887BF01
:100F700007C0813029F489E085BD87B7806887BFC5
:100F80007894089587B78F7787BF85B58F7785BDAC
:100F90000895CF93DF93EC018AEF83BD10920D0388
:100FA00010920C0380E0D9DF20910C0330910D03E7
:100FB0002C173D07C8F3E6DFDF91CF9108951F920C
:100FC0000F920FB60F9211248F939F9380910C0371
:100FD00090910D03019690930D0380930C039F91C4
:100FE0008F910F900FBE0F901F9018955058BB27F0
:100FF000AA270ED075C166D130F06BD120F031F444
:101000009F3F11F41EF45BC10EF4E095E7FB51C164
:10101000E92F77D180F3BA17620773078407950722
:1010200018F071F49EF58FC10EF4E0950B2EBA2FD7
:10103000A02D0B01B90190010C01CA01A0011124DE
:10104000FF27591B99F0593F50F4503E68F11A168A
:10105000F040A22F232F342F4427585FF3CF46951B
:1010600037952795A795F0405395C9F77EF41F163D
:10107000BA0B620B730B840BBAF09150A1F0FF0F07
:10108000BB1F661F771F881FC2F70EC0BA0F621FF3
:10109000731F841F48F4879577956795B795F795E3
:1010A0009E3F08F0B3CF9395880F08F09927EE0F75
:1010B000979587950895D9D008F481E008950CD0CC
:1010C0000FC107D140F0FED030F021F45F3F19F09E
:1010D000F0C0511139C1F3C014D198F39923C9F369
:1010E0005523B1F3951B550BBB27AA27621773072E
:1010F000840738F09F5F5F4F220F331F441FAA1FE2
:10110000A9F333D00E2E3AF0E0E830D091505040A1
:10111000E695001CCAF729D0FE2F27D0660F771F4F
:10112000881FBB1F261737074807AB07B0E809F031
:10113000BB0B802DBF01FF2793585F4F2AF09E3FC6
:10114000510568F0B6C000C15F3FECF3983EDCF398
:10115000869577956795B795F7959F5FC9F7880F3F
:10116000911D9695879597F90895E1E0660F771F91
:10117000881FBB1F621773078407BA0720F0621B22
:10118000730B840BBA0BEE1F88F7E095089504D01B
:101190006894B111D9C00895BCD088F09F5790F0E1
:1011A000B92F9927B751A0F0D1F0660F771F881F8C
:1011B000991F1AF0BA95C9F712C0B13081F0C3D0A7
:1011C000B1E00895C0C0672F782F8827B85F39F045
:1011D000B93FCCF3869577956795B395D9F73EF4EB
:1011E00090958095709561957F4F8F4F9F4F089593
:1011F000E89409C097FB3EF49095809570956195B1
:101200007F4F8F4F9F4F9923A9F0F92F96E9BB2766
:101210009395F695879577956795B795F111F8CFE2
:10122000FAF4BB0F11F460FF1BC06F5F7F4F8F4F4D
:101230009F4F16C0882311F096E911C0772321F043
:101240009EE8872F762F05C0662371F096E8862FDB
:1012500070E060E02AF09A95660F771F881FDAF732
:10126000880F9695879597F90895990F0008550F5F
:10127000AA0BE0E8FEEF16161706E807F907C0F01C
:1012800012161306E407F50798F0621B730B840B24
:10129000950B39F40A2661F0232B242B252B21F4FE
:1012A00008950A2609F4A140A6958FEF811D811D9E
:1012B000089597F99F6780E870E060E008959FEFD8
:1012C00080EC089500240A941616170618060906DD
:1012D000089500240A9412161306140605060895AC
:1012E000092E0394000C11F4882352F0BB0F40F434
:1012F000BF2B11F460FF04C06F5F7F4F8F4F9F4F74
:10130000089557FD9058440F551F59F05F3F71F0F5
:101310004795880F97FB991F61F09F3F79F087955C
:101320000895121613061406551FF2CF4695F1DFE5
:1013300008C0161617061806991FF1CF8695710575
:10134000610508940895E894BB2766277727CB01A9
:1013500097F908950BD0C4CFB5DF28F0BADF18F0A5
:10136000952309F0A6CFABCF1124EECFCADFA0F3AF
:10137000959FD1F3950F50E0551F629FF001729F2A
:10138000BB27F00DB11D639FAA27F00DB11DAA1F49
:10139000649F6627B00DA11D661F829F2227B00D96
:1013A000A11D621F739FB00DA11D621F839FA00D21
:1013B000611D221F749F3327A00D611D231F849F71
:1013C000600D211D822F762F6A2F11249F575040C8
:1013D0008AF0E1F088234AF0EE0FFF1FBB1F661F63
:1013E000771F881F91505040A9F79E3F510570F01C
:1013F00060CFAACF5F3FECF3983EDCF386957795FC
:101400006795B795F795E7959F5FC1F7FE2B880F16
:10141000911D9695879597F9089597FB072E16F4D9
:10142000009406D077FD08D00BD007FC05D03EF421
:10143000909581959F4F0895709561957F4F089580
:10144000AA1BBB1B51E107C0AA1FBB1FA617B707EA
:1014500010F0A61BB70B881F991F5A95A9F7809506
:101460009095BC01CD0108950F931F93CF93DF9307
:10147000869F8001879F100D969F100D1124C80133
:101480000DD0EC01009721F0A80160E070E02DD1B3
:10149000CE01DF91CF911F910F910895CF93DF93EC
:1014A0008230910510F482E090E0E0911003F09119
:1014B000110320E030E0A0E0B0E0309739F1408146
:1014C000518148175907B8F04817590771F48281BC
:1014D0009381109729F013969C938E9312972CC0AA
:1014E000909311038093100327C02115310531F02B
:1014F0004217530718F0A901DB0101C0EF019A015F
:10150000BD01DF010280F381E02DD7CF2115310528
:10151000F9F0281B390B2430310580F48A819B8136
:101520006115710521F0FB019383828304C09093C0
:10153000110380931003FE01329644C0FE01E20FB6
:10154000F31F8193919322503109398328833AC044
:1015500020910E0330910F03232B41F420910201BF
:101560003091030130930F0320930E03209100016B
:10157000309101012115310541F42DB73EB740915D
:10158000040150910501241B350BE0910E03F091ED
:101590000F03E217F307A0F42E1B3F0B28173907A0
:1015A00078F0AC014E5F5F4F2417350748F04E0FBF
:1015B0005F1F50930F0340930E038193919302C0DA
:1015C000E0E0F0E0CF01DF91CF910895CF93DF937A
:1015D000009709F487C0FC01329713821282C091F0
:1015E0001003D0911103209781F420813181280FBD
:1015F000391F80910E0390910F038217930779F59D
:10160000F0930F03E0930E036DC0DE0120E030E0A5
:10161000AE17BF0750F412964D915C9113979D0140
:101620004115510509F1DA01F3CFB383A28340815B
:101630005181840F951F8A179B0771F48D919C919E
:101640001197840F951F02969183808312968D9136
:101650009C911397938382832115310529F4F0938C
:101660001103E09310033EC0D9011396FC93EE934F
:1016700012974D915D91A40FB51FEA17FB0779F4FE
:1016800080819181840F951F0296D90111969C93B8
:101690008E938281938113969C938E931297E0E0B0
:1016A000F0E08A819B81009719F0FE01EC01F9CFEF
:1016B000CE01029628813981820F931F20910E035B
:1016C00030910F032817390769F4309729F41092E5
:1016D00011031092100302C013821282D0930F03E1
:1016E000C0930E03DF91CF910895DC0101C06D938B
:1016F00041505040E0F70895FB01DC018D910190CD
:1017000080190110D9F3990B0895FB01DC010190B8
:101710000D920020E1F708950F931F93CF93DF936D
:10172000CDB7DEB72E970FB6F894DEBF0FBECDBF94
:101730008C01CA0146E04C831A83098377FF02C0FB
:1017400060E070E8615071097E836D83A901BC017E
:10175000CE01019619D04D815E8157FD0AC02F81BF
:101760003885421753070CF49A01F801E20FF31F72
:1017700010822E960FB6F894DEBF0FBECDBFDF915C
:10178000CF911F910F9108952F923F924F925F92A8
:101790006F927F928F929F92AF92BF92CF92DF9281
:1017A000EF92FF920F931F93CF93DF93CDB7DEB7E6
:1017B0002C970FB6F894DEBF0FBECDBF7C016B0136
:1017C0008A01FC0117821682838181FFB0C1CE019C
:1017D00001964C01F7019381F60193FD859193FFEA
:1017E00081916F01882309F49EC1853239F493FDFC
:1017F000859193FF81916F01853221F4B70190E0CB
:10180000C7D1E8CF512C312C20E02032A0F48B320C
:1018100069F030F4803259F0833269F420612CC0D1
:101820008D3239F0803339F4216026C02260246083
:1018300023C0286021C027FD27C030ED380F3A3083
:1018400078F426FF06C0FAE05F9E300D1124532E77
:1018500013C08AE0389E300D1124332E20620CC054
:101860008E3221F426FD5FC1206406C08C3611F44F
:10187000206802C0883641F4F60193FD859193FFFC
:1018800081916F018111C1CF982F9F7D9554933025
:1018900028F40C5F1F4FFFE3F9830DC0833631F04E
:1018A000833771F0833509F057C021C0F80180817A
:1018B00089830E5F1F4F44244394512C540114C05C
:1018C0003801F2E06F0E711CF801A080B18026FF94
:1018D00003C0652D70E002C06FEF7FEFC5012C875C
:1018E0004CD12C0183012C852F77222E16C0380174
:1018F000F2E06F0E711CF801A080B18026FF03C0DA
:10190000652D70E002C06FEF7FEFC5012C872AD1F3
:101910002C012C852068222E830123FC19C0832DE5
:1019200090E048165906A0F4B70180E290E030D16B
:101930003A94F5CFF50127FC859127FE81915F014F
:10194000B70190E025D131103A94F1E04F1A5108D7
:101950004114510479F7DEC0843611F0893631F52F
:10196000F80127FF07C060817181828193810C5F3C
:101970001F4F08C060817181882777FD8095982F5F
:101980000E5F1F4F2F76B22E97FF09C0909580955E
:10199000709561957F4F8F4F9F4F2068B22E2AE040
:1019A00030E0A40127D1A82EA81843C0853729F418
:1019B0002F7EB22E2AE030E025C0F22FF97FBF2E15
:1019C0008F36C1F018F4883579F0ADC0803719F042
:1019D000883721F0A8C02F2F2061B22EB4FE0DC091
:1019E0008B2D8460B82E09C024FF0AC09F2F9660FB
:1019F000B92E06C028E030E005C020E130E002C08A
:101A000020E132E0F801B7FE07C060817181828178
:101A100093810C5F1F4F06C06081718180E090E070
:101A20000E5F1F4FA401E6D0A82EA818FB2DFF774C
:101A3000BF2EB6FE0BC02B2D2E7FA51450F4B4FE86
:101A40000AC0B2FC08C02B2D2E7E05C07A2C2B2D8F
:101A500003C07A2C01C0752C24FF0DC0FE01EA0DD5
:101A6000F11D8081803311F4297E09C022FF06C058
:101A70007394739404C0822F867809F0739423FDC5
:101A800012C020FF06C05A2C731418F4530C5718B8
:101A9000732C731460F4B70180E290E02C8778D047
:101AA00073942C85F6CF731410F4371801C0312CC1
:101AB00024FF11C0B70180E390E02C8769D02C850A
:101AC00022FF16C021FF03C088E590E002C088E72E
:101AD00090E0B7010CC0822F867851F021FD02C042
:101AE00080E201C08BE227FD8DE2B70190E050D08B
:101AF000A51430F4B70180E390E04AD05A94F8CFAF
:101B0000AA94F401EA0DF11D8081B70190E040D064
:101B1000A110F6CF332009F45DCEB70180E290E04A
:101B200037D03A94F7CFF7018681978102C08FEFC3
:101B30009FEF2C960FB6F894DEBF0FBECDBFDF919E
:101B4000CF911F910F91FF90EF90DF90CF90BF90BA
:101B5000AF909F908F907F906F905F904F903F904D
:101B60002F900895FC010590615070400110D8F746
:101B7000809590958E0F9F1F0895FC0161507040D5
:101B800001900110D8F7809590958E0F9F1F0895B2
:101B90000F931F93CF93DF93182F092FEB018B81A6
:101BA00081FD03C08FEF9FEF20C082FF10C04E81E8
:101BB0005F812C813D81421753077CF4E881F981D4
:101BC0009F012F5F3F4F39832883108306C0E8852C
:101BD000F985812F0995892B29F72E813F812F5F68
:101BE0003F4F3F832E83812F902FDF91CF911F9105
:101BF0000F910895FA01AA27283051F1203181F17F
:101C0000E8946F936E7F6E5F7F4F8F4F9F4FAF4F04
:101C1000B1E03ED0B4E03CD0670F781F891F9A1F17
:101C2000A11D680F791F8A1F911DA11D6A0F711DCB
:101C3000811D911DA11D20D009F468943F912AE0D7
:101C4000269F11243019305D3193DEF6CF010895BF
:101C5000462F4770405D4193B3E00FD0C9F7F6CFF0
:101C6000462F4F70405D4A3318F0495D31FD4052B8
:101C7000419302D0A9F7EACFB4E0A695979587954E
:101C800077956795BA95C9F700976105710508952D
:101C90009B01AC010A2E06945795479537952795D9
:101CA000BA95C9F7620F731F841F951FA01D089571
:041CB000F894FFCFD6
:101CB400000012032000FF03DA023A02C201860187
:101CC40054012C010401F000C800B400AA00A000D3
:101CD4009B00960091002003303C2D392E3A0030B1
:101CE4003C2D392E3A002935263227330029352652
:101CF400322733003332313033322C2B3130363506
:101D0400343A3938332F2E2D2C0C0C0C0C0C0C3E81
:101D14000C0C0C0C0C0C3E0C0C0C0C0C0C3E0C0C9B
:101D24000C0C0C0C30080808181818181818080897
:101D3400080808081010101010100000000000001F
:101D44000000000000496E697469616C697A656419
:101D54002E005455524E007475726E004D4F564508
:101D6400006D6F76650057494E0077696E005363C6
:101D7400616E6E696E672E2E2E00495220496D6D7C
:101D8400696E656E7420436F6C6C6973696F6E2045
:101D940064657465637465640050494E4720496DF9
:101DA4006D696E656E7420436F6C6C6973696F6ED8
:101DB40020646574656374656400466F727761724C
:101DC4006420626F756E6461727920646574656302
:101DD4007465640046696E6973682044657465635C
:101DE4007465642E004C65667420626F756E646160
:101DF4007279206465746563746564005269676808
:101E04007420626F756E64617279206465746563B1
:101E14007465640046726F6E7420436C6966662054
:101E2400446574656374656400526967687420432B
:101E34006C696666204465746563746564004C650A
:101E4400667420436C6966662064657465637465B2
:0E1E54006400436F6C6C6973696F6E2100004F
:00000001FF
